:020000040800F2
:10000000302F00208D020008D91B0008611900085C
:10001000D51B000875110008E32F00080000000040
:100020000000000000000000000000002929000876
:10003000F111000800000000A5270008A502000833
:10004000A7020008A7020008A7020008A7020008EC
:10005000A7020008A7020008A7020008A7020008DC
:10006000A7020008A7020008A7020008A7020008CC
:10007000A7020008A7020008A7020008A7020008BC
:10008000A7020008A7020008A7020008A7020008AC
:10009000A7020008A7020008A7020008A70200089C
:1000A000A7020008A7020008A7020008A70200088C
:1000B000A7020008A7020008A7020008A70200087C
:1000C000A7020008A7020008A7020008A70200086C
:1000D000A70200087D2C0008CD2D0008A70200080B
:1000E000A7020008A7020008A7020008A70200084C
:1000F000A7020008A7020008A7020008A70200083C
:10010000A7020008A7020008A7020008A70200082B
:10011000A7020008A7020008A7020008112B000888
:10012000A7020008A7020008A7020008A70200080B
:10013000A7020008A7020008A7020008A7020008FB
:10014000A7020008A7020008A7020008A7020008EB
:10015000A7020008A7020008A7020008A7020008DB
:10016000A7020008A7020008A7020008A7020008CB
:10017000A7020008A7020008A7020008A7020008BB
:10018000A7020008A702000800F002F800F06EF8CD
:100190000AA090E8000C82448344AAF10107DA45E2
:1001A00001D100F063F8AFF2090EBAE80F0013F0C6
:1001B000010F18BFFB1A43F0010318474442000027
:1001C0006442000010F8013B0A4413F0030408BF26
:1001D00010F8014B1D1108BF10F8015B641E05D01B
:1001E00010F8016B641E01F8016BF9D1002D15D0D8
:1001F00010F8014B03F00C030C2BA1EB04040ABF15
:1002000010F8013BA4EB8314A4EB032405F10103D4
:1002100014F8016B5B1E01F8016BF9D5914238BFF0
:1002200010F8013BD1D3704700230024002500269D
:10023000103A28BF78C1FBD8520728BF30C148BF49
:100240000B607047642900F08B80002070471FB559
:1002500003F0C4FC00F0AEFA04000020002103F01B
:10026000A7FC401C60601FBD10B510BD00F07DFAFA
:100270001146FFF7ECFF03F0E7F900F0ADFA03B425
:10028000FFF7F2FF03BC02F017FF000009488047A8
:1002900009480047FEE7FEE7FEE7FEE7FEE7FEE768
:1002A000FEE7FEE7FEE7FEE704480549054A064B80
:1002B00070470000A92A00088901000830290020A1
:1002C000302F0020302B0020302B00207047000002
:1002D0000FB41CB5074B06AA7B44694600900598ED
:1002E00000F071F90020694600F080F91CBC5DF84F
:1002F00014FB0000110300002DE9F0410E460446F6
:10030000002020622046E168884730B3252805D0C8
:10031000D4E901219047206A401CF2E7E1682046B9
:1003200000278847050018D0A5F14100192802D8F8
:1003300020354FF400673246294620462760FFF7F4
:1003400081FF40B1012804D0F61D26F007060836CB
:10035000D8E7361DD6E72846DAE7206ABDE8F081FF
:100360002DE9F0410646002410687529314616A58E
:1003700010D0AFF30080002802DA404213A507E056
:1003800031688A0701D512A502E0490704D511A5F5
:10039000012401E0AFF3008000210A2206F12407C6
:1003A00009E0B0FBF2FCB0FBF2F302FB1C003030C2
:1003B00078541846491C0028F3D123462A46304673
:1003C000BDE8F04100F0A0B8000000002D000000E2
:1003D0002B0000002000000070B5064600F090F8E9
:1003E0000468054630460A22002100F004F92C601A
:1003F00070BD30B505460B462A4613F8014B12F87E
:10040000010B08B1A042F8D01CB1002802D06D1C2D
:10041000F1E7284630BD40EA010310B59B070FD134
:10042000042A0DD310C808C9121F9C42F8D020BA64
:1004300019BA884201D9012010BD4FF0FF3010BD1C
:100440001AB1D30703D0521C07E0002010BD10F8EA
:10045000013B11F8014B1B1B07D110F8013B11F8B0
:10046000014B1B1B01D1921EF1D1184610BD40EA71
:100470000103024630B59B0710D14FF0013400E074
:1004800008C208C91D1B9D4315EAC41FF8D013F00C
:10049000FF0102F8011B0DD01B0AF8E711F8013B20
:1004A000002B02F8013B05D011F8013B002B02F8AC
:1004B000013BF3D130BD4FF000020429C0F012809F
:1004C00010F0030C00F0D180CCF1040CBCF1020F51
:1004D00018BF00F8012BA8BF20F8022BA1EB0C01DC
:1004E00000F0C3B85FEAC17C24BF00F8012B00F81C
:1004F000012B48BF00F8012B7047704770477047C9
:1005000000487047CC2800202DE9F0470D46994659
:100510009246044600F124080168880604D5E06983
:1005200021F01001216000E00120A84201DD471BFD
:1005300000E00027A1697A1902EB0900081AA061FE
:100540002078C00602D42046AFF30080002608E0E1
:10055000D4E901211AF806009047206A401C761C55
:1005600020624E45F4DB2078C0060AD52046AFF362
:10057000008006E0D4E9012130209047206A401C29
:100580002062381EA7F10107F4DC07E0D4E901215D
:1005900018F805009047206A401C2062281EA5F12B
:1005A0000105F3DC2046AFF300802078000602D579
:1005B0000220BDE8F0870120FBE7000001694A1C2A
:1005C00002610878704700B58FB0CDE90131002194
:1005D000059105497944CDE9031011466846FFF7B6
:1005E0008BFE0FB000BD0000E5FFFFFF0A6802F8B8
:1005F000010B0A6070472DE9F04791460F4680468F
:100600000446002614F8015B2DB100F057F800688D
:10061000405DC007F6D12B2D02D02D2D18D0641EC1
:100620004A463946204600F051F827B13968A142C0
:1006300001D1C7F800804FF0020471050BD540428C
:10064000002803DDFFF75CFF0460A007BDE8F0872A
:1006500046F48066E4E70028F8DAFFF751FF04600B
:100660006FF00040F2E74FF0000200B513469446E9
:100670009646203922BFA0E80C50A0E80C50B1F1FA
:100680002001BFF4F7AF090728BFA0E80C5048BF0E
:100690000CC05DF804EB890028BF40F8042B08BFAC
:1006A000704748BF20F8022B11F0804F18BF00F8A8
:1006B000012B704700487047CC28002010B500F08F
:1006C00079F8001D10BD00BFE93400002DE9F05F8E
:1006D000824615468B4600270AF10104B946007888
:1006E000302801D09DB113E014F8010B01277828C0
:1006F00003D0582801D045B10AE00DB1102D07D123
:10070000002714F8010B102502E0082500E00A2557
:100710000026B0460EE005FB080005FB06F10127A8
:100720001FFA80F801EB1046B6F5803F00D3B946BA
:1007300014F8010B294600F041F80028EBDABBF170
:10074000000F05D00FB1641E00E05446CBF8004006
:10075000B9F1000F06D0FFF7D3FE02210160C81ED9
:10076000BDE8F09F48EA0640FAE77546FFF7A2FFAA
:10077000AE4605006946534620F00700854618B08E
:1007800020B5FFF791FDBDE820404FF000064FF087
:1007900000074FF000084FF0000B21F00701AC46B6
:1007A000ACE8C009ACE8C009ACE8C009ACE8C009D5
:1007B0008D46704700487047EC2800203A2800D248
:1007C000303820F02002412A01D3A2F137008842BC
:1007D00001D34FF0FF30704710B50446AFF30080EF
:1007E0002046BDE81040FFF74ABD00004FF0013C35
:1007F00050F8042B51F8043B9A4221D1A2EB0C0390
:10080000934313EACC1317D150F8042B51F8043B4F
:100810009A4215D1A2EB0C03934313EACC130BD1EC
:1008200050F8042B51F8043B9A4209D1A2EB0C0377
:10083000934313EACC13DBD04FF00000704700BFA6
:10084000D01A01BAB1FA81F101F0180122FA01F0CF
:10085000CB40C1F12001DBB2C0B2C01A2CFA01F3C7
:10086000D11A914311EAC311E6D170472DE9F8433B
:1008700001244FF00008002701F0F6F900266DE290
:10088000FE4850F8260000287ED10120FB4941F89F
:10089000260061E2052F56D2DFE807F00356B9FDC6
:1008A000FC0063220321202001F0DCFA70220321E6
:1008B000302001F0D7FA15220321402001F0D2FAAE
:1008C00016220321502001F0CDFA01F0D3FB04469B
:1008D0006CBB012001F0ABFB0446DCB901F0C4F9AC
:1008E00015220321202001F0BDFA16220321302019
:1008F00001F0B8FA71220321402001F0B3FA72220C
:100900000321502001F0AEFA4FF4FA7002F0D5FB4B
:10091000012718E001F0A8F9204602F0BFF80027EF
:100920004FF4FA7002F0C9FB01F09EF90BE001F000
:100930009BF90027204602F0B1F84FF4FA7002F05C
:10094000BCFB01F091F906E201F08EF9632203216C
:10095000182001F087FA73220321282001F082FA7F
:1009600070220321382001F07DFA742203214820EF
:1009700001F078FA75220321582001F073FA4FF440
:10098000FA7002F09AFB00E0E7E101F073FB044625
:100990007CBB022001F04BFB0446ECB901F064F98A
:1009A00015220321202001F05DFA162203213020B8
:1009B00001F058FA71220321402001F053FA72220B
:1009C0000321502001F04EFA4FF4FA7002F075FB4B
:1009D00001F04AF9022719E001F046F9204602F039
:1009E0005DF800274FF4FA7002F067FB01F03CF964
:1009F0000CE0FFE7012701F037F9204602F04EF83E
:100A00004FF4FA7002F059FB01F02EF9A3E101F066
:100A10002BF976220321102001F024FA77220321FA
:100A2000202001F01FFA78220321302001F01AFA69
:100A300075220321402001F015FA152203215020D0
:100A400001F010FA0B220321602001F00BFA4FF4A1
:100A5000FA7002F032FB01F072FB0446F4B901F0C7
:100A600003F976220321202001F0FCF977220321EB
:100A7000302001F0F7F95F220321402001F0F2F964
:100A800060220321502001F0EDF94FF4FA7002F0DA
:100A900014FB01E0A7E045E0032742E001F0E4F8A1
:100AA00076220321202001F0DDF977220321302076
:100AB00001F0D8F919220321402001F0D3F91A22BC
:100AC0000321502001F0CEF94FF4FA7002F0F5FA4C
:100AD00001F0CAF8204601F0E1FF4FF4FA7002F08D
:100AE000ECFA01F0C1F800220321104601F0BAF936
:100AF00001220321122001F0B5F961480723512298
:100B0000012100902E2001F0CEF8022203215C206A
:100B100001F0A8F9032211466E2001F0A3F9BDE807
:100B2000F88318E101F0A0F879220321102001F0E8
:100B300099F95F220321202001F094F91522032165
:100B4000302001F08FF916220321402001F08AF9AC
:100B500038220321502001F085F939220321602039
:100B600001F080F94FF4FA7002F0A7FA01F004FBEB
:100B700004465CBB01F078F879220321002001F0E3
:100B800071F95F220321102001F06CF91522032175
:100B9000202001F067F916220321302001F062F9CC
:100BA00038220321402001F05DF939220321502031
:100BB00001F058F95F220321602001F053F960220F
:100BC0000321702001F04EF904270BE001F04CF8EE
:100BD0000027204601F062FF4FF4FA7002F06DFA30
:100BE00001F042F8B7E001F03FF8B3E000256FE014
:100BF000224850F82500002869D101201F4941F8FA
:100C00002500A9B2022001F0D4FA0446002C51D1EB
:100C1000284600F0B1FA01F027F813220321102032
:100C200001F020F914220321202001F01BF91522E4
:100C30000321302001F016F916220321402001F093
:100C400011F95F220321502001F00CF960220321E9
:100C5000104601F007F94FF4FA7002F02EFA012065
:100C6000064941F8280000F0FFFF0022032110464A
:100C700001F0F8F801220321122003E0B826002039
:100C8000B022002001F0EEF855480723512201213F
:100C900000902E2001F007F8022203215C2001F0D1
:100CA000E1F8032211466E2001F0DCF820204D49C6
:100CB000087034E700F0D8FF0027204601F0EEFE70
:100CC0004FF4FA7002F0F9F900F0CEFF27E76D1C3F
:100CD000052D8DDB00F0C8FF81220221202001F0CC
:100CE000C1F882220221302001F0BCF883220221C7
:100CF000402001F0B7F884220221502001F0B2F820
:100D00004FF4FA7002F0D9F94FF4FA7002F0D5F905
:100D100000F0AAFF00220321104601F0A3F80122EF
:100D20000321122001F09EF82D48072351220121B2
:100D300000902E2000F0B7FF022203215C2001F07A
:100D400091F8032211466E2001F08CF820202549ED
:100D50000870E4E64AE700BF9CE5761C052EFFF626
:100D60008FAD81220221202001F07CF88222022115
:100D7000302001F077F883220221402001F072F840
:100D800084220221502001F06DF84FF4FA7002F035
:100D900094F94FF4FA7002F090F900F065FF002228
:100DA0000321104601F05EF801220321122001F018
:100DB00059F80B4807235122012100902E2000F002
:100DC00072FF022203215C2001F04CF8032211463D
:100DD0006E2001F047F820200249087000BF9EE60F
:100DE000B02200209E2200202DE9FF410020029029
:100DF0000390002400F038FF00252020D54908701A
:100E0000A3E102F083F9D3480078202821D0D1480B
:100E100000782A281DD0CF480078232819D0CD4843
:100E20000078442815D015B100F01EFF0025062CCF
:100E30000BDAC84802782046641C02A90A54102321
:100E400002AA02210A2001F093F82020C14908706B
:100E50007BE1C04800782A287ED100270026B8E030
:100E600000F002FF0622BCA102A8FFF7D4FA002876
:100E700073D10190A8E02020B649087002F046F92D
:100E8000B448007820281DD0B24800782A2819D00C
:100E9000B0480078232815D0AE480078442811D0F7
:100EA00015B100F0E1FE0025AA4800788DF8040095
:100EB000102301AA02210A2001F05AF82020A54996
:100EC000087081E0A34800782A285AD1012700F051
:100ED000CBFE80220221202000F0C4FF57220221F5
:100EE000302000F0BFFF58220221402000F0BAFF5E
:100EF00059220221502000F0B5FF5A22042120205F
:100F000000F0B0FF5B220421302000F0ABFF5C2238
:100F10000421402000F0A6FF5D220421502000F0B3
:100F2000A1FF01A8FFF758FA804600F025F900F06C
:100F30009BFE00220321104600F094FF01220321B2
:100F4000122000F08FFF86480723512201210090D4
:100F50002E2000F0A8FE01E0A9E036E002220321E5
:100F60005C2000F07FFF032211466E2000F07AFF24
:100F700001A8FFF731FA7B49002241F82020BDE8A3
:100F8000FF817448007844281ED100F06DFE0022D5
:100F90000321104600F066FF01220321122000F019
:100FA00061FF6F4807235122012100902E2000F09D
:100FB0007AFE022203215C2000F054FF0322114636
:100FC0006E2000F04FFFDAE755E7202061490870F6
:100FD000761C052EFFF644AF00BF002F66D16722B6
:100FE0000321202000F03EFF51220321302000F099
:100FF00039FF09220321402000F034FF0A22032197
:10100000502000F02FFF58480078401C56490870C7
:1010100008460078052821D14FF40071534800F0AC
:101020009BFC002610E04FF48071504800F096FCC5
:10103000322002F042F84FF480714C4800F08CFCF2
:10104000322002F03AF8761C192EECDB4FF40071D6
:10105000464800F083FC002043490870002604E065
:101060004FF4FA7002F029F8761C042EF8DB00F039
:10107000FBFD00220321104600F0F4FE01220321B3
:10108000122000F0EFFE3648072351220121009084
:101090002E2000F008FE022203215C2000F0E2FE78
:1010A000032211466E2000F0DDFE68E74EE029487D
:1010B000007844282AD100F0D7FD10212C48006880
:1010C000FFF7F9F900202A4908602020214908701B
:1010D00000220321104600F0C5FE01220321122048
:1010E00000F0C0FE1E4807235122012100902E204F
:1010F00000F0D9FD022203215C2000F0B3FE0322A0
:1011000011466E2000F0AEFE01251EE01148007869
:101110002A281AD116480068042816D000F0A4FD29
:1011200067220321202000F09DFE51220321302060
:1011300000F098FE09220321402000F093FE0A22CD
:101140000321502000F08EFE19E75AE600BF00BFD1
:1011500015E700009E22002031323334353600007E
:10116000B0220020B82600208C230020001402406A
:101170008823002000BFFEE770B5044614B94FF481
:1011800000650FE0012C01D125030BE0022C01D1F9
:10119000250307E0032C02D14FF4804502E0042C24
:1011A00000D165032946104800F0D8FB4FF4807148
:1011B0000D4800F0D3FBC82001F07FFF4FF4807191
:1011C000094800F0C9FB002604E04FF4FA7001F072
:1011D00074FF761C082EF8DD2946034800F0BCFB9E
:1011E00000200249087070BD001402408C230020CA
:1011F000704710B50346002404E04FF4FA7000F085
:1012000005F8641CB4EB430FF7D310BD00214FF079
:10121000E0221161C0EBC00101EB4101491E5161A7
:10122000002191610121116100BF4FF0E0210969A6
:1012300001F480310029F8D000214FF0E022116143
:101240007047000010B50446212C7DD2DFE804F081
:1012500011183C6590B4D8FEFDFCFBFA7C7C7C7CCC
:10126000F9F87C7C7CF77C7CF6F5F4F3F27C7CF17D
:10127000F0001023FEA20321382000F079FEF1E2F5
:1012800004220321002000F0EDFD0522032110209F
:1012900000F0E8FD06220321202000F0E3FD0722F4
:1012A0000321302000F0DEFD08220321402000F061
:1012B000D9FD09220321502000F0D4FD0A22032188
:1012C000602000F0CFFDCDE20B220321002000F0D2
:1012D000C9FD0C220321102000F0C4FD0D220321C2
:1012E000202000F0BFFD0E220321302000F0BAFDC7
:1012F0000F220321402000F0B5FD102203215020D1
:1013000000F0B0FD11220321602000F0ABFD12229D
:101310000321702000F0A6FDA4E213220321002087
:1013200000F0A0FD14220321102000F09BFD1522E7
:101330000321202000F096FD16220321302000F02A
:1013400091FD1722032100E068E2402000F08AFDB1
:1013500018220321502000F085FD1922032160206E
:1013600000F080FD1A220321702000F07BFD79E25D
:1013700015220321002000F075FD16220321102004
:1013800000F070FD1D220321202000F06BFD1B22C8
:101390000321302000F066FD1C220321402000F0D4
:1013A00061FD1D220321502000F05CFD1E2203215F
:1013B000602000F057FD55E215220321002000F0C7
:1013C00051FD16220321102000F04CFD1D220321A7
:1013D000202000F047FD1B220321302000F042FDB9
:1013E0001F220321402000F03DFD1D22032150203B
:1013F00000F038FD20220321602000F033FD31E2AF
:1014000015220321002000F02DFD162203211020BB
:1014100000F028FD17220321202000F023FD1822D0
:101420000321302000F01EFD1D22032140200EE08C
:10143000DFE1C9E1A4E17FE15FE144E128E1FBE014
:10144000D6E0B6E08CE06CE047E02CE007E000F08E
:1014500009FD21220321502000F004FD02E21522A3
:101460000321002000F0FEFC16220321102000F0D2
:10147000F9FC22220321202000F0F4FC2322032186
:10148000302000F0EFFC24220321402000F0EAFC91
:101490001D220321502000F0E5FC252203216020BD
:1014A00000F0E0FCDEE115220321002000F0DAFC70
:1014B00016220321102000F0D5FC26220321202033
:1014C00000F0D0FC27220321302000F0CBFC2822A2
:1014D0000321402000F0C6FCC4E10F2203210020BC
:1014E00000F0C0FC10220321104600F0BBFC2922B2
:1014F0000321202000F0B6FC2A220321302000F036
:10150000B1FC2B220321402000F0ACFC152203216A
:10151000502000F0A7FC16220321602000F0A2FC5E
:10152000A0E122220321002000F09CFC23220321C1
:10153000102000F097FC2C220321202000F092FCC8
:101540002D220321302000F08DFC192203214020A0
:1015500000F088FC1A220321502000F083FC81E176
:101560002E220321002000F07DFC2F2203211020D9
:1015700000F078FC30220321202000F073FC31229F
:101580000321302000F06EFC32220321402000F0C5
:1015900069FC33220321502000F064FC3422032133
:1015A000602000F05FFC35220321702000F05AFC1F
:1015B00058E136220321102000F054FC3722032189
:1015C000202000F04FFC38220321302000F04AFC9C
:1015D00039220321402000F045FC1922032150202C
:1015E00000F040FC1A220321602000F03BFC39E1AE
:1015F0003A220321002000F035FC3B220321102079
:1016000000F030FC15220321202000F02BFC1622D4
:101610000321302000F026FC3C220321402000F072
:1016200021FC19220321502000F01CFC1A22032166
:10163000602000F017FC15E13D220321002000F09E
:1016400011FC3E220321102000F00CFC3F2203215C
:10165000202000F007FC40220321302000F002FC93
:1016600041220321402000F0FDFB1022032101E074
:101670004F4B0000502000F0F5FB42220321602078
:1016800000F0F0FB17220321702000F0EBFBE9E0F3
:1016900043220321002000F0E5FB44220321102017
:1016A00000F0E0FB102370A20321202000F060FC7A
:1016B00033220321482000F0D5FB092203215820C2
:1016C00000F0D0FBCEE045220321102000F0CAFB41
:1016D00046220321202000F0C5FB472203213020B1
:1016E00000F0C0FB09220321402000F0BBFB0A22CE
:1016F0000321502000F0B6FBB4E04122032110206A
:1017000000F0B0FB42220321202000F0ABFB482276
:101710000321302000F0A6FB49220321402000F0E5
:10172000A1FB4A220321502000F09CFB4B22032105
:10173000602000F097FB95E048220321002000F094
:1017400091FB49220321102000F08CFB4A22032147
:10175000202000F087FB40220321302000F082FB94
:101760004C220321402000F07DFB09220321502060
:1017700000F078FB0A220321602000F073FB71E087
:101780004D220321002000F06DFB4E22032110208A
:1017900000F068FB4F220321202000F063FB502261
:1017A0000321302000F05EFB51220321402000F095
:1017B00059FB09220321502000F054FB0A22032187
:1017C000602000F04FFB4DE015220321202000F0A7
:1017D00049FB16220321302000F044FB3C22032168
:1017E000402000F03FFB52220321502000F03AFB42
:1017F00038E02E220321202000F034FB2F22032189
:10180000302000F02FFB09220321402000F02AFBAA
:101810000A220321502000F025FB23E0532203215C
:10182000082000F01FFB54220321182000F01AFBAF
:1018300055220321282000F015FB562203213820D1
:1018400000F010FB51220321482000F00BFB102276
:101850000321582000F006FB0A220321682000F033
:1018600001FB00BF00BF10BD464C415348000000C3
:10187000F0B50A4600210023002400BF3DE0012509
:1018800005FA01F3156805EA03049C4234D10568A2
:101890004F000326BE40B543056015794E00B540A4
:1018A0000668354305601579012D02D01579022DA2
:1018B00016D185684F000326BE40B5438560557933
:1018C0004E00B540866835438560456801268E40E8
:1018D000B5434560456896798E40B6B2354345605C
:1018E000C5684F000326BE40B543C560D5794E009C
:1018F000B540C6683543C560491C1029BFD3F0BD4B
:10190000F0B5002300244D07ED0E02FA05F3CE10CA
:1019100000F1200555F826504E07F70E0F26BE4061
:10192000B543CF1000F1200646F82750CE1000F145
:10193000200555F8265045EA0304CE1000F1200595
:1019400045F82640F0BD0246002013690B400BB15C
:10195000012000E0002070474183704701837047F9
:1019600000BFFEE71CB50121102000F01DFF002084
:101970008DF8040001208DF80700000200906946F0
:101980000148FFF775FF1CBD001002401CB5012186
:10199000102000F009FF01208DF8040003208DF8CD
:1019A000050000208DF8060001208DF807000002D8
:1019B000009069460148FFF75BFF1CBD0010024024
:1019C00010B5FFF7E3FF4FF480710D48FFF7C6FF36
:1019D00080210B48FFF7C2FF052001F07BFB4FF48D
:1019E00080710748FFF7B8FF052001F073FB8021E5
:1019F0000348FFF7B1FF052001F06CFB10BD0000AC
:101A00000010024010B5FFF7C1FF4FF480710D4880
:101A1000FFF7A2FF80210B48FFF79EFF052001F092
:101A200059FB80210748FFF799FF052001F052FB81
:101A30004FF480710348FFF791FF052001F04AFB46
:101A400010BD00000010024010B5FFF78BFF802191
:101A50001048FFF781FF052001F03CFB80210D4875
:101A6000FFF77CFF052001F035FB4FF4807109483A
:101A7000FFF769FF08B1002400E00124052001F010
:101A800029FB80210348FFF767FF052001F022FBB7
:101A9000204610BD001002407CB50546EF208DF8B1
:101AA000000001208DF801001A480068000E8DF832
:101AB000020018480068000C8DF8030015480088E3
:101AC000000A8DF80400134800788DF805000720FF
:101AD0008DF8060000208DF807000F49088012E0FD
:101AE000012001F0EAFA0C48008800F4004050B1EF
:101AF00000200949088069460848FEF77AFC044638
:101B00000CB120467CBD681E80B2051EE8D100BF26
:101B1000F8E7000094220020902200209823002063
:101B20001CB50121202000F03FFE0F200090002076
:101B30008DF804008DF8060003208DF805000120C3
:101B40008DF8070069460B48FFF792FEF0200090E1
:101B500001208DF8040000208DF8060003208DF888
:101B6000050000208DF8070069460248FFF780FE57
:101B70001CBD0000001402401CB50121202000F013
:101B800013FE4FF40070009001208DF80400002037
:101B90008DF8060003208DF8050000208DF8070061
:101BA00069460448FFF764FE4FF400710148FFF7EF
:101BB000D5FE1CBD0014024000BF0549098801F094
:101BC00040010029F9D00249091D08807047000032
:101BD0000044004000BFFEE77047000070B50021E0
:101BE00000230F22C4781CB3174C246804F4E0646B
:101BF000C4F5E064C4F30721C1F10404E3B20A416F
:101C000044789C40E1B28478144021430C07210EB3
:101C10000E4C05786155047804F01F050124AC4092
:101C200005786D11AD0005F1E025C5F8004109E02A
:101C3000047804F01F050124AC40054D06787611A8
:101C400045F8264070BD00000CED00E000E400E027
:101C500080E100E002490143024A11607047000040
:101C60000000FA050CED00E070B5002418E004F166
:101C7000B000002100F099F90021084600F095F924
:101C80000021102000F091F9002505E0012100203D
:101C900000F08BF9681CC5B2802DF7DB601CC4B264
:101CA000082CE4DB70BD2DE9F05F06460F46904638
:101CB0001C46DDF828A04FF0000BE11704EB517132
:101CC000C910A4EBC10131B92046E11704EB5171F1
:101CD000C1F3C70506E02046E11704EB5171C910B6
:101CE000491CCDB23D4615E02946304600F0A6F825
:101CF000B1460BE059460BF1010B1AF80100012126
:101D000000F053F909F1010000F0FF09C145F1DBD2
:101D1000681CC5B2A542E7DBBDE8F09F1CB50121F8
:101D2000102000F041FD01208DF8040003208DF803
:101D3000050000208DF8060001208DF80700000244
:101D4000009069463C48FFF793FD8020009069466B
:101D50003948FFF78DFDC82001F0AFF90021AE2012
:101D600000F023F90021084600F01FF9002110209F
:101D700000F01BF90021402000F017F90021B020ED
:101D800000F013F90021812000F00FF90021FF205D
:101D900000F00BF90021A12000F007F90021A62096
:101DA00000F003F90021A82000F0FFF800213F20F7
:101DB00000F0FBF80021C82000F0F7F80021D32044
:101DC00000F0F3F80021084600F0EFF80021D520DC
:101DD00000F0EBF80021802000F0E7F80021D82087
:101DE00000F0E3F80021052000F0DFF80021D92001
:101DF00000F0DBF80021F12000F0D7F80021DA2014
:101E000000F0D3F80021122000F0CFF80021DB20F1
:101E100000F0CBF80021302000F0C7F800218D2021
:101E200000F0C3F80021142000F0BFF80021AF201B
:101E300000F0BBF81CBD00000010024070B5044665
:101E40000D4605F1B000002100F0AFF8102141EA85
:101E50001410002100F0A9F804F00F00002100F098
:101E6000A4F870BD2DE9F04180460E4615460027C6
:101E700031464046FFF7E2FF00240AE0124A02EB37
:101E80008511085D012100F090F8781CC7B2601C34
:101E9000C4B2102CF2DB701CC1B24046FFF7CEFF7B
:101EA00000240CE06900491C074A02EB4111085D5F
:101EB000012100F07AF8781CC7B2601CC4B2102C63
:101EC000F0DBBDE8F0810000100000202DE9F047B4
:101ED00007460E469046994600250024A8F12000AA
:101EE000C5B27F2F02DD0027B01CC6B2B9F1100FBA
:101EF00024D131463846FFF7A1FF002408E004EB67
:101F00000511194A505C012100F04FF8601CC4B261
:101F1000082CF4DB701CC1B23846FFF78FFF002499
:101F200009E004EB051108310F4A505C012100F073
:101F30003CF8601CC4B2082CF3DB12E03146384692
:101F4000FFF77CFF00240AE005EB4501074A02EB9E
:101F50004101085D012100F028F8601CC4B2062C84
:101F6000F2DBBDE8F08700000E3E0008E63B00080B
:101F70002DE9F04104460F461546984600260FE02D
:101F8000AA5D434639462046FFF7A0FF04F108004A
:101F9000C4B2782C02DD0024B81CC7B2701CC6B2D3
:101FA000A85D0028ECD1BDE8F08170B504460D466F
:101FB0001DB1E0B201F06AF802E0E0B201F050F8C1
:101FC00070BD2DE9F04104460D4600F0D8FC00F04C
:101FD000ADFC012000F0CDFC072000F0D8FC0C2067
:101FE00000F0DFFC2012FFF7E7FDE0B2FFF7E4FDB1
:101FF0002812FFF7E1FDE8B2FFF7DEFD142000EB49
:102000002420E1B2084400EB2520E9B200EB0108EE
:10201000404600F0A5FC4FF4FA60FFF73DFD07468F
:102020000FB17E7A00E0FF263046BDE8F0812DE951
:10203000F041054600F0A3FC00F078FC012000F020
:1020400098FC042000F0A3FC022000F0AAFC284623
:10205000FFF7B2FDEF1D384600F082FC4FF4FA6046
:10206000FFF71AFD06460EB1747A00E0FF24204601
:10207000BDE8F08170B500F082FC00F057FC012053
:1020800000F077FC032000F082FC012000F089FCC6
:102090000526304600F064FC4FF4FA60FFF7FCFCC4
:1020A00005460DB16C7A00E0FF24204670BD2DE995
:1020B000F04781460D4616461F4600F060FC00F0D2
:1020C00035FC012000F055FC082000F060FC1B20CE
:1020D00000F067FC4846FFF76FFD2812FFF76CFD24
:1020E000E8B2FFF769FD3012FFF766FDF0B2FFF7C7
:1020F00063FD09F1240000EB2520E9B2084400EB60
:102100002620F1B200EB010A504600F029FC4FF402
:10211000FA60FFF7C1FC044664B194F80980E07AE4
:10212000A17A00EB01203880607B217B00EB01204D
:10213000788001E04FF0FF084046BDE8F08770B5B9
:1021400000F01DFC00F0F2FB012000F012FC032067
:1021500000F01DFC032000F024FC0726304600F0B0
:10216000FFFB4FF4FA60FFF797FC05460DB16C7A60
:1021700000E0FF24204670BD70B500F000FC00F0C8
:10218000D5FB012000F0F5FB032000F000FC05204A
:1021900000F007FC0926304600F0E2FB4FF4FA603D
:1021A000FFF77AFC05460DB16C7A00E0FF2420466B
:1021B00070BD2DE9F04106460C4600F0E0FB00F052
:1021C000B5FB012000F0D5FB062000F0E0FB062067
:1021D00000F0E7FB3046FFF7EFFC2012FFF7ECFCC6
:1021E000E0B2FFF7E9FC06F10D0000EB2420E1B2BC
:1021F00000EB0108404600F0B3FB4FF4FA60FFF734
:102200004BFC07460FB17D7A00E0FF252846BDE86C
:10221000F0810000F8B5FFF727FD8522022100209C
:10222000FFF720FE862202211020FFF71BFE8722E7
:1022300002212020FFF716FE882202213020FFF71E
:1022400011FE892202214020FFF70CFE00251021FB
:10225000A948FEF730F90020A84908602020A849C5
:10226000087045E100F052FFA5480078202826D0EC
:10227000A34800782A2822D0A148007823281ED01D
:102280009F48007844281AD015B1FFF7EDFC0025CF
:102290009A48006805280EDA99490A78974908682B
:1022A000411C964B196094490A5410230A46022196
:1022B0005020FFF75DFE20209149087018E19048FA
:1022C00000782A287ED1002600245DE0FFF7CCFCB0
:1022D0008C4800EB840104228748FEF79CF8002814
:1022E0004ED1802202212020FFF7BCFD572202217F
:1022F0003020FFF7B7FD582202214020FFF7B2FD42
:10230000592202215020FFF7ADFD5A22042120203E
:10231000FFF7A8FD5B2204213020FFF7A3FD5C221C
:1023200004214020FFF79EFD5D2204215020FFF78D
:1023300099FD2046FEF720FFFFF796FC00220321BF
:102340001046FFF78FFD012203211220FFF78AFDBF
:102350006D4807235122012100902E20FFF7A3FC96
:10236000022203215C20FFF77DFD032211466E202F
:10237000FFF778FD0020654941F82400012605E0BB
:1023800020205F490870641C052C9FDB00BF002ED5
:1023900068D1672203212020FFF764FD5122032129
:1023A0003020FFF75FFD092203214020FFF75AFD8F
:1023B0000A2203215020FFF755FD55480078401CA4
:1023C000534900E04FE0087008460078052821D105
:1023D0004FF400714F48FFF7BFFA002410E04FF4AC
:1023E00080714C48FFF7BAFA322000F066FE4FF4D5
:1023F00080714848FFF7B0FA322000F05EFE641C9E
:10240000192CECDB4FF400714248FFF7A7FA0020CB
:102410003F490870002404E04FF4FA7000F04DFECC
:10242000641C042CF8DBFFF71FFC0022032110467C
:10243000FFF718FD012203211220FFF713FD324898
:1024400007235122012100902E20FFF72CFC0222AD
:1024500003215C20FFF706FD032211466E20FFF7E3
:1024600001FDF8BD45E02648007844282CD1FFF74F
:10247000FBFB102121480068FEF71DF800201F49D2
:10248000086020201E490870FFF7EEFB00220321A0
:102490001046FFF7E7FC012203211220FFF7E2FCC0
:1024A000194807235122012100902E20FFF7FBFB42
:1024B000022203215C20FFF7D5FC032211466E2087
:1024C000FFF7D0FC0125CCE70D48007823280FD179
:1024D00020200B490870202108480068401E074A48
:1024E0001060054A1154102302210820FFF740FD17
:1024F000B8E600BF00BFB4E7822300208823002095
:102500009E220020B8280020B0220020B8260020FB
:102510008C23002000140240FEB5002001900290A0
:102520000025FFF7A1FB852202210020FFF79AFC7E
:10253000862202211020FFF795FC8722022120200D
:10254000FFF790FC882202213020FFF78BFC8922C4
:1025500002214020FFF786FC002620208D490870CC
:1025600017E100F0D3FD8B480078202821D089485E
:1025700000782A281DD087480078232819D085485C
:102580000078442815D016B1FFF76EFB0026042D05
:102590000BDA8048027828466D1C01A90A541023E2
:1025A00001AA02215020FFF7E3FC2020794908709E
:1025B000EFE0784800782A2879D1042DFCD1002456
:1025C0005BE0754850F82400002855D1012072497D
:1025D00041F82400FFF748FB802202212020FFF76A
:1025E00041FC572202213020FFF73CFC58220221F7
:1025F0004020FFF737FC592202215020FFF732FC20
:102600005A2204212020FFF72DFC5B2204213020D8
:10261000FFF728FC5C2204214020FFF723FC5D2209
:1026200004215020FFF71EFC2046FEF7A5FDFFF712
:102630001BFB002203211046FFF714FC012203219B
:102640001220FFF70FFC554807235122012100906B
:102650002E20FFF728FB022203215C20FFF702FC5B
:10266000032211466E20FFF7FDFB4D4901EB84006C
:1026700001A9FDF7FCFEFEBD641C052CA1DBFFF7E4
:10268000F3FA812202212020FFF7ECFB82220221B3
:102690003020FFF7E7FB832202214020FFF7E2FB17
:1026A000842202215020FFF7DDFB002405E025E015
:1026B0004FF4FA7000F001FD641C082CF8DDFFF700
:1026C000D3FA002203211046FFF7CCFB012203219D
:1026D0001220FFF7C7FB3148072351220121009048
:1026E0002E20FFF7E0FA022203215C20FFF7BAFB5D
:1026F000032211466E20FFF7B5FBBCE725480078A2
:10270000442829D1FFF7B0FA10212846FDF7D3FE5F
:10271000002520201F490870FFF7A6FA0022032198
:102720001046FFF79FFB012203211220FFF79AFBBF
:102730001A4807235122012100902E20FFF7B3FAF7
:10274000022203215C20FFF78DFB032211466E203D
:10275000FFF788FB01261CE00E4800782A2818D1D4
:10276000042D16D0FFF780FA672203212020FFF7FF
:1027700079FB512203213020FFF774FB092203214A
:102780004020FFF76FFB0A2203215020FFF76AFB6E
:1027900071E7E6E69E220020B8260020B022002045
:1027A000B82800207047000029B1064A1268024389
:1027B000044B1A6004E0034A12688243014B1A601A
:1027C000704700003038024029B1064A12680243BF
:1027D000044B1A6004E0034A12688243014B1A60FA
:1027E000704700004038024029B1064A126802438F
:1027F000044B1A6004E0034A12688243014B1A60DA
:102800007047000044380240F0B500210022002447
:10281000022500260223324F3F6807F00C0121B148
:10282000042905D0082937D105E02E4F076036E08E
:102830002D4F076033E02A4F3F1F3F68C7F3805694
:10284000274F3F1F3F6807F03F036EB1264FB7FB8E
:10285000F3F7DFF88CC0ACF1040CDCF800C0CCF36B
:10286000881C07FB0CF40CE01E4FB7FBF3F7DFF8F6
:1028700070C0ACF1040CDCF800C0CCF3881C07FB82
:102880000CF4174F3F1F3F68C7F301477F1C7D00C3
:10289000B4FBF5F7076002E0124F076000BF00BF0E
:1028A0000F4F3F6807F0F0010909104F7A5C076885
:1028B000D74047600A4F3F6807F4E051890A0B4F41
:1028C0007A5C4768D7408760054F3F6807F46041EE
:1028D000490B064F7A5C4768D740C760F0BD0000DF
:1028E000083802400024F40000127A0000000020A2
:1028F0001CB501212020FFF757FF4FF478400090CE
:1029000001208DF8040000208DF8060003208DF8CA
:10291000050000208DF8070069460248FEF7A8FF71
:102920001CBD0000001402407047000010B50B49A8
:102930000968080EFFF740F908480068C0F307402F
:10294000FFF73AF905480088C0F30720FFF734F98C
:1029500002490878FFF730F910BD000094220020EA
:1029600010B504462012FFF727F9E0B2FFF724F96B
:1029700010BD10B504462046FFF71EF910BD10B576
:10298000EF20FFF719F90120FFF716F910BD10B578
:102990000446C4F30720FFF70FF9E0B2FFF70CF984
:1029A00010BD10B504462046FFF706F910BD000023
:1029B0000CB50020019000903448006840F480304D
:1029C0003249086000BF3148006800F400300090D0
:1029D0000198401C0190009818B90198B0F5A04FDB
:1029E000F1D12A48006800F4003010B101200090B5
:1029F00001E0002000900098012846D12348403093
:102A0000006840F08050214940310860204800684B
:102A100040F440401E4908601C48083000681B49CB
:102A2000083108600846006840F400400860084625
:102A3000006840F4A05008601648091F0860081F8D
:102A4000006840F08070091F086000BF0F480068F0
:102A500000F000700028F9D040F205700E490860BF
:102A60000A480830006820F003000849083108606F
:102A70000846006840F00200086000BF03480830C4
:102A8000006800F00C000828F8D10CBD00380240A6
:102A90000070004008544007003C024010B5044656
:102AA0002046FEF7CFFB10BD10B51548006840F476
:102AB0007000134908601348006840F00100114994
:102AC000086000200F49083108600E4800680E4970
:102AD00008400C4908600D48091D0860081F00687F
:102AE00020F48020091F0860002006490C3108608E
:102AF000FFF75EFF4FF0006001498039086010BDAC
:102B000088ED00E000380240FFFFF6FE10300024A0
:102B100010B50121094800F052F868B10848008852
:102B200040F40040064908800121044800F038F8CC
:102B30000021024800F037F810BD000000140040EA
:102B4000902200207FB504460D4601212020FFF78A
:102B50003BFEADF8005001940020ADF80800ADF840
:102B6000020069460D4800F047F837208DF80C0048
:102B700000208DF80D0001208DF80E008DF80F005B
:102B800003A8FFF72BF801221146044800F028F8AB
:102B90000121024800F007F87FBD0000001400404A
:102BA000CA430282704721B1028842F001020280CA
:102BB00004E002884FF6FE731A400280704730B579
:102BC0000246002000230024158A05EA01039589A6
:102BD00005EA010413B10CB1012000E0002030BD72
:102BE0001AB183890B43838102E083898B438381FC
:102BF000704741627047000000220288184B9842DB
:102C00000ED0184B98420BD0B0F1804F08D0164B25
:102C1000984205D0154B984202D0154B984204D1EA
:102C20004FF68F731A404B881A43124B984207D0C5
:102C3000114B984204D04FF6FF431A400B891A43B8
:102C400002804B68C3620B880385054B984202D013
:102C5000044B984201D18B7A03860123838270470B
:102C60000000014000040140000400400008004052
:102C7000000C0040001000400014004010B540F26D
:102C800025511C4800F0EFF800B31A4800F0A4F9F1
:102C9000C4B2532C03D101201749087029E0452CF8
:102CA00015D100201449087009E000201349124A88
:102CB0001278885410480078401C0F4908700E485C
:102CC00000782028F1DB00200B49087011E00A4849
:102CD000007800280DDD08480078642809DC0648E3
:102CE0000078401E05490C5403480078401C0249F6
:102CF000087010BD00100140AF22002054280020B1
:102D000010B588B0044601210846FFF74DFD0121AA
:102D10004804FFF759FD072202212848FEF7F0FD7D
:102D2000072203212548FEF7EBFD02208DF808005D
:102D300003208DF8090000208DF80A0001208DF88D
:102D40000B000C20019001A91C48FEF791FD049492
:102D50000020ADF81400ADF81600ADF81800ADF87D
:102D60001C000C20ADF81A0004A9154800F0CAF8A0
:102D700026208DF80C0000208DF80D008DF80E0037
:102D800001208DF80F0003A8FEF728FF012240F272
:102D900025510B4800F091F80121094800F057F83F
:102DA00042F2CF016320FFF7CDFE002005490880E5
:102DB00000210548FFF7F7FE08B010BD00000240F3
:102DC00000440040902200200014004010B540F262
:102DD0002551164800F047F8F8B1144800F0FCF807
:102DE000C4B21348008800F40040B0B9104800880D
:102DF000B0F5C87F12DA00210E48FFF7FAFE0C4842
:102E0000008818B901210B48FFF7CDFE0849088852
:102E1000411C074A118008490C5405E00448008809
:102E200040F400400249088010BD0000004400400A
:102E300090220020001400409823002001F400722A
:102E4000B2F5007F00D100BFCA430280704721B1B4
:102E5000828942F40052828104E082894DF6FF7338
:102E60001A408281704770B5024600240023002575
:102E7000002040F66A16B14200D100BFC1F34215EE
:102E800001F01F03012606FA03F3012D02D19689F2
:102E9000334006E0022D02D1168A334001E0968AC3
:102EA00033400C12012606FA04F41688344013B19C
:102EB0000CB1012000E0002070BDF0B503460024F5
:102EC00000260025002040F66A17B94200D100BF55
:102ED0001846C1F3421401F01F06012707FA06F550
:102EE000012C01D10C3004E0022C01D1103000E0A3
:102EF00014301AB107682F43076002E00768AF4338
:102F00000760F0BD2DE9FF4705460E460024A146A7
:102F100000BFA046B08900B100BF2C8A24F4405401
:102F2000F08804432C82AC8941F20C608443B08861
:102F300031890843718908430443AC81AC8A24F485
:102F40004074B0890443AC826846FFF75DFC2048BA
:102F5000854202D01F48854202D1DDF80C9001E085
:102F6000DDF80890A88900F4004040B109EBC900E1
:102F700000EB091031684900B0FBF1F707E009EBFD
:102F8000C90000EB091031688900B0FBF1F764203B
:102F9000B7FBF0F004012009642101FB1078A88937
:102FA00000F4004040B1322000EBC800B0FBF1F06B
:102FB00000F00700044308E0322000EB0810642111
:102FC000B0FBF1F000F00F0004432C81BDE8FF8757
:102FD000001001400014014001468888C0F3080039
:102FE000704700BFFEE7000070B505460024FEF7FD
:102FF000CDFC4FF480711948FEF7AEFC80211748D4
:10300000FEF7AAFC052000F065F800BF23E0C4F13C
:10301000070101208840284028B14FF480710F48F3
:10302000FEF79CFC04E04FF480710C48FEF794FC22
:10303000052000F04FF880210848FEF78FFC05209E
:1030400000F048F880210548FEF786FC052000F0D6
:1030500041F8601CC4B2082CD9DB70BD00100240DE
:1030600010B50446FEF7ACFC7820FFF7BDFFFEF775
:10307000EBFC0020FFF7B8FFFEF7E6FC2046FFF769
:10308000B3FFFEF7E1FCFEF7BDFC10BD10B5044632
:10309000FEF796FC7820FFF7A7FFFEF7D5FC40204F
:1030A000FFF7A2FFFEF7D0FC2046FFF79DFFFEF7DB
:1030B000CBFCFEF7A7FC10BD704710B503460024FB
:1030C00004E04FF4FA70FEF7A1F8641CB4EB430F70
:1030D000F7D310BD00214FF0E0221161C0EBC00119
:1030E00001EB4101491E51610021916101211161F2
:1030F00000BF4FF0E021096901F480310029F8D0C8
:1031000000214FF0E02211617047000010B510213E
:10311000FE48FEF721FC2021FC48FEF71FFC402161
:10312000FA48FEF71BFC8021F848FEF717FC012146
:10313000F648FEF708FCA0B9F548007888B90A20DF
:10314000FEF757F80121F148FEF7FDFB90B9F04872
:10315000007878B93120EF4908700120EC490870F7
:1031600008E00121E948FEF7EEFB012802D100202A
:10317000E74908700221E548FEF7E5FBA0B9E648FB
:10318000007888B90A20FEF734F80221DF48FEF7FC
:10319000DAFB90B9E048007878B93420DD4908704E
:1031A0000120DD49087008E00221D848FEF7CBFB7A
:1031B000012802D10020D84908700421D348FEF725
:1031C000C2FBA0B9D548007888B90A20FEF711F8EB
:1031D0000421CE48FEF7B7FB90B9D048007878B903
:1031E0003720CC4908700120CC49087008E0042140
:1031F000C648FEF7A8FB012802D10020C749087085
:103200000821C248FEF79FFBA0B9C548007888B9DD
:103210000A20FDF7EEFF0821BC48FEF794FB90B9A9
:10322000BF48007878B92A20BA4908700120BC4903
:10323000087008E00821B548FEF785FB012802D197
:103240000020B74908701021B048FEF787FB202105
:10325000AE48FEF781FB4021AC48FEF77FFB8021A2
:10326000AA48FEF77BFB0121A848FEF76CFBA0B93A
:10327000AC48007888B90A20FDF7BBFF0121A348BC
:10328000FEF761FB90B9A748007878B93220A149D0
:1032900008700120A349087008E001219B48FEF74F
:1032A00052FB012802D100209E4908700221974854
:1032B000FEF749FBA0B99C48007888B90A20FDF7C1
:1032C00098FF02219148FEF73EFB90B9964800789E
:1032D00078B935208F49087001209349087008E0BB
:1032E00002218A48FEF72FFB012802D100208E49D7
:1032F000087004218548FEF726FBA0B98B480078AA
:1033000088B90A20FDF775FF04218048FEF71BFBF2
:1033100090B98648007878B938207E490870012035
:103320008249087008E004217848FEF70CFB012868
:1033300002D100207D49087008217448FEF703FB84
:10334000A0B97B48007888B90A20FDF752FF082110
:103350006E48FEF7F8FA90B97548007878B93020D1
:103360006C49087001207249087008E0082167481C
:10337000FEF7E9FA012802D100206D4908701021FA
:103380006248FEF7EBFA20216048FEF7E7FA402199
:103390005E48FEF7E1FA80215C48FEF7DFFA012182
:1033A0005A48FEF7D0FAA0B96248007888B90A20D6
:1033B000FDF71FFF01215548FEF7C5FA90B95D489A
:1033C000007878B9332053490870012059490870B2
:1033D00008E001214D48FEF7B6FA012802D100208D
:1033E0005449087002214948FEF7ADFAA0B9524885
:1033F000007888B90A20FDF7FCFE02214348FEF759
:10340000A2FA90B94C48007878B936204149087042
:1034100001204949087008E002213C48FEF793FA70
:10342000012802D100204449087004213748FEF7E2
:103430008AFAA0B94148007888B90A20FDF7D9FE78
:1034400004213248FEF77FFA90B93C48007878B9F9
:1034500039203049087001203849087008E00421FB
:103460002A48FEF770FA012802D10020334908707B
:1034700008212648FEF767FAA0B93148007888B9D4
:103480000A20FDF7B6FE08212048FEF75CFA90B945
:103490002B48007878B923201E490870012028495C
:1034A000087008E008211948FEF74DFA012802D1FA
:1034B00000202349087010211448FEF74FFA2021FC
:1034C0001248FEF74BFA40211048FEF747FA8021D8
:1034D0000E48FEF741FA01210C48FEF734FAA0B974
:1034E0001848007888B90A20FDF783FE01210748B3
:1034F000FEF729FA40BB1348007828BB4120054954
:10350000087001200F49087028E01EE000140240F6
:103510009F2200209E220020A2220020A52200201F
:10352000A9220020A0220020A3220020A622002001
:10353000A8220020A1220020A4220020A7220020EF
:10354000AA220020AB22002008E001213848FEF723
:10355000FAF9012802D100203649087002213448C6
:10356000FEF7F1F9A0B93448007888B90A20FDF7D0
:1035700040FE02212E48FEF7E6F990B92E48007869
:1035800078B942202D49087001202B49087008E0C5
:1035900002212748FEF7D7F9012802D10020264949
:1035A000087004212248FEF7CEF9A0B9244800781B
:1035B00088B90A20FDF71DFE04211D48FEF7C3F956
:1035C00090B91F48007878B943201C490870012041
:1035D0001B49087008E004211548FEF7B4F90128DA
:1035E00002D100201649087008211148FEF7ABF9F6
:1035F000A0B91448007888B90A20FDF7FAFD08211F
:103600000B48FEF7A0F990B90E48007878B944202D
:103610000A49087001200B49087008E00821044895
:10362000FEF791F9012802D100200649087010BD6B
:1036300000140240AB220020AC2200209E22002079
:10364000AD220020AE22002008B54FF4E13000F09A
:1036500055FAFEF791FAFFF74BF9FEF761FA4FF4CE
:10366000A060FEF7F7FA4FF46140FFF749FBFEF761
:1036700055FBFEF7F9FA002203211046FEF7F2FB94
:10368000012203211220FEF7EDFB234807235122DC
:10369000012100902E20FEF706FB022203215C2070
:1036A000FEF7E0FB032211466E20FEF7DBFB202035
:1036B0001A4908702FE0FFF729FD184800784128C3
:1036C00005D1202015490870FDF7D0F823E01348F4
:1036D0000078422805D1202010490870FEF71CFF11
:1036E00019E00E480078432805D120200B490870C6
:1036F00000F016F80FE009480078442805D1202092
:1037000006490870FEF786FD05E004480078312878
:1037100001D1FDF769FBCEE7B02200209E220020F8
:1037200030B587B0FEF7A0FAD7E1FEF7A3FC044658
:10373000002C7CD10120FEF77AFC0446002CF3D14A
:1037400006AB632200210120FEF7B1FC0446002CE9
:103750006ED1BDF81800E14951F82000012868D168
:103760000020BDF81810DD4A42F82100FEF77CFA6F
:10377000152202211020FEF775FB162202212020BF
:10378000FEF770FB7C2202213020FEF76BFB7D22CE
:1037900002214020FEF766FB5F2202215020FEF747
:1037A00061FB602202211046FEF75CFBBDF81A3077
:1037B000BDF81820CAA101A8FCF78AFD102301AAB0
:1037C00004210020FEF7D4FB4FF4FA70FFF775FCDC
:1037D0004FF4FA70FFF771FCFEF746FA80220221DF
:1037E0002020FEF73FFB572202213020FEF73AFB54
:1037F000582202214020FEF735FB59220221502099
:10380000FEF730FB5A2204212020FEF72BFB5B221F
:1038100004213020FEF726FB5C2204214020FEF725
:1038200021FB5D2204215020FEF71CFB02E040E159
:10383000D2E06DE0BDF81800FDF79EFCFEF714FA2B
:10384000002203211046FEF70DFB01220321122066
:10385000FEF708FBA64807235122012100902E20E5
:10386000FEF721FA022203215C20FEF7FBFA032275
:1038700011466E20FEF7F6FABDF81A000121FEF798
:10388000A0FB0446002C41D1FEF7EEF936220321BD
:103890001020FEF7E7FA372203212020FEF7E2FA94
:1038A000152203213020FEF7DDFA162203214020E5
:1038B000FEF7D8FA5F2203215020FEF7D3FA6022E8
:1038C00003211046FEF7CEFA4FF4FA70FFF7F5FB2E
:1038D000FEF7CAF9002203211046FEF7C3FA0122BF
:1038E00003211220FEF7BEFA81480723512201214D
:1038F00000902E20FEF7D7F9022203215C20FEF76C
:10390000B1FA032211466E20FEF7ACFA07B030BDC3
:10391000FEF7AAF9152203211020FEF7A3FA1622BA
:1039200003212020FEF79EFA7C2203213020FEF79F
:1039300099FA7D2203214020FEF794FA19220321EF
:103940005020FEF78FFA1A2203216020FEF78AFA30
:1039500068480078401C67490870084600780828C5
:1039600017D1002510E04FF480716348FDF7F6FF92
:103970003220FFF7A2FB4FF480715F48FDF7ECFFA8
:103980003220FFF79AFB6D1C192DECDB0020594902
:1039900008704FF4FA70FFF790FBFEF765F900220C
:1039A00003211046FEF75EFA012203211220FEF7E2
:1039B00059FA4F4807235122012100902E20FEF78B
:1039C00072F9022203215C20FEF74CFA0322114611
:1039D0006E20FEF747FA99E7FEF746F91522032114
:1039E0001020FEF73FFA162203212020FEF73AFAB4
:1039F0007C2203213020FEF735FA7D22032140206E
:103A0000FEF730FA192203215020FEF72BFA1A2272
:103A100003216020FEF726FA36480078401C35491D
:103A2000087008460078082820D181013248FDF747
:103A300093FF002510E04FF480712F48FDF78EFFB3
:103A40003220FFF73AFB4FF480712B48FDF784FFDB
:103A50003220FFF732FB6D1C192DECDB4FF40071A7
:103A60002548FDF77BFF0020224908704FF4FA70CB
:103A7000FFF723FBFEF7F8F8002203211046FEF7BC
:103A8000F1F9012203211220FEF7ECF9184807236F
:103A90005122012100902E20FEF705F90222032178
:103AA0005C20FEF7DFF9032211466E20FEF7DAF9FB
:103AB0002CE7632203212020FEF7D4F97022032192
:103AC0003020FEF7CFF9152203214020FEF7CAF976
:103AD000162203215020FEF7C5F926E6B82600205D
:103AE00049443A25642073636F72653A2564000087
:103AF000B02200208C2300200014024010B588B0B2
:103B0000044601210846FEF74FFE01211020FEF772
:103B10006BFE072209212448FDF7F2FE07220A2145
:103B20002148FDF7EDFE4FF4C060069002208DF8AD
:103B30001C008DF81D0000208DF81E0001208DF85E
:103B40001F0006A91848FDF793FE02940020ADF867
:103B50000C00ADF80E00ADF81000ADF814000C200C
:103B6000ADF8120002A91148FFF7CCF901210F4866
:103B7000FFF76DF940210D48FFF760F9012240F28F
:103B800025510A48FFF799F925208DF804000020F7
:103B90008DF805008DF8060001208DF8070001A8BA
:103BA000FEF71CF808B010BD0000024000100140F4
:103BB00010B500290AD00878002807D005487844B5
:103BC000FCF714FE002801D0002010BD0248784404
:103BD00010BD0000620800005A0800004FF040705D
:103BE000E1EE100A70470000000000000000002F06
:103BF000000000000700070000147F147F14002459
:103C00002A7F2A1200626408132300364955225085
:103C100000000503000000001C22410000004122BA
:103C20001C000014083E08140008083E08080000A4
:103C300000A060000008080808080000606000009C
:103C4000002010080402003E5149453E0000427F1A
:103C50004000004261514946002141454B31001866
:103C600014127F10002745454539003C4A49493028
:103C700000017109050300364949493600064949E2
:103C8000291E0000363600000000563600000008ED
:103C900014224100001414141414000041221408CA
:103CA00000020151090600324959513E007C1211AF
:103CB000127C007F49494936003E41414122007F44
:103CC0004141221C007F49494941007F09090901FE
:103CD000003E4149497A007F0808087F0000417F83
:103CE0004100002040413F01007F08142241007F35
:103CF00040404040007F020C027F007F0408107F9C
:103D0000003E4141413E007F09090906003E415104
:103D1000215E007F091929460046494949310001C1
:103D2000017F0101003F4040403F001F2040201F15
:103D3000003F4038403F00631408146300070870D8
:103D4000080700615149454300007F41410000558B
:103D50002A552A55000041417F0000040201020457
:103D60000040404040400000010204000020545444
:103D70005478007F48444438003844444420003894
:103D80004444487F00385454541800087E09010206
:103D90000018A4A4A47C007F080404780000447DDB
:103DA0004000004080847D00007F10284400000017
:103DB000417F4000007C04180478007C08040478EB
:103DC00000384444443800FC2424241800182424D7
:103DD00018FC007C080404080048545454200004D3
:103DE0003F444020003C4040207C001C2040201CE0
:103DF000003C4030403C004428102844001CA0A057
:103E0000A07C004464544C44141414141414000092
:103E100000000000000000000000000000000000A2
:103E200000F8000000000000003330000000001027
:103E30000C06100C0600000000000000000040C04E
:103E40007840C0784000043F04043F040400007040
:103E500088FC08300000001820FF211E0000F00838
:103E6000F000E018000000211C031E211E0000F0DD
:103E70000888700000001E21232419272110101625
:103E80000E00000000000000000000000000000024
:103E900000E01804020000000007182040000002A3
:103EA0000418E00000000040201807000000404017
:103EB00080F0804040000202010F01020200000079
:103EC00000F0000000000101011F010101000000DD
:103ED00000000000000080B0700000000000000042
:103EE00000000000000000010101010101010000CB
:103EF0000000000000000030300000000000000062
:103F0000000080601804006018060100000000E056
:103F100010080810E000000F102020100F00001003
:103F200010F8000000000020203F2020000000705A
:103F30000808088870000030282422213000003052
:103F40000888884830000018202020110E0000004A
:103F5000C02010F8000000070424243F240000F8CB
:103F60000888880808000019212020110E0000E0B0
:103F7000108888180000000F112020110E00003852
:103F80000808C83808000000003F0000000000706A
:103F9000880808887000001C222121221C0000E0F3
:103FA00010080810E0000000312222110F0000006C
:103FB00000C0C00000000000003030000000000021
:103FC0000080000000000000806000000000000091
:103FD000804020100800000102040810200040402A
:103FE000404040404000040404040404040000086D
:103FF0001020408000000020100804020100007022
:1040000048080808F0000000003036010000C03009
:10401000C828E810E0000718272423140B0000002C
:10402000C038E0000000203C23020227382008F8B6
:10403000888888700000203F202020110E00C030AA
:10404000080808083800071820202010080008F881
:1040500008080810E000203F202020100F0008F87A
:104060008888E8081000203F20202320180008F846
:104070008888E8081000203F200003000000C030BE
:1040800008080838000007182020221E020008F83F
:1040900008000008F808203F210101213F20000806
:1040A00008F8080800000020203F20200000000041
:1040B0000808F8080800C08080807F00000008F829
:1040C00088C028180800203F20012638200008F862
:1040D000080000000000203F20202020300008F8C9
:1040E000F800F8F80800203F003F003F200008F8E3
:1040F00030C00008F808203F200007183F00E010FB
:1041000008080810E0000F10202020100F0008F809
:1041100008080808F000203F210101010000E0101C
:1041200008080810E0000F18242438504F0008F841
:10413000888888887000203F2000030C30200070A1
:104140008808080838000038202121221C0018089F
:1041500008F8080818000000203F2000000008F8B8
:1041600008000008F808001F202020201F00087801
:10417000880000C83808000007380E010000F80861
:1041800000F80008F800033C0700073C030008188B
:1041900068808068180820302C03032C30200838F1
:1041A000C800C83808000000203F200000001008A8
:1041B0000808C838080020382621202018000000F0
:1041C00000FE020202000000007F40404000000CA0
:1041D00030C000000000000000010638C0000002EE
:1041E0000202FE000000004040407F00000000008E
:1041F00004020202040000000000000000000000B1
:1042000000000000000080808080808080800002AC
:104210000204000000000000000000000000000098
:104220008080808000000019242222223F2008F88C
:10423000008080000000003F112020110E000000CF
:10424000008080800000000E11202020110000005E
:1042500000808088F800000E112020103F20000010
:10426000808080800000001F222222221300008014
:1042700080F0888888180020203F2020000000005F
:10428000808080808000006B94949493600008F894
:10429000008080800000203F210000203F2000801F
:1042A0009898000000000020203F2020000000001F
:1042B00000809898000000C08080807F000008F88F
:1042C000000080808000203F24022D302000000864
:1042D00008F8000000000020203F2020000080801F
:1042E000808080808000203F20003F20003F808031
:1042F000008080800000203F210000203F2000003F
:10430000808080800000001F202020201F008080EF
:1043100000808000000080FFA12020110E0000001E
:10432000008080808000000E112020A0FF8080800F
:1043300080008080800020203F21200001000000BC
:104340008080808080000033242424241900008091
:1043500080E0808000000000001F2020000080809E
:10436000000000808000001F202020103F2080805F
:1043700080000080808000010E30080601008080EF
:104380000080008080800F300C030C300F00008014
:104390008000808080000020312E0E31200080803F
:1043A00080000080808080818E701806010000806F
:1043B0008080808080000021302C2221300000008D
:1043C0000000807C020200000000003F404000002E
:1043D0000000FF00000000000000FF0000000002DD
:1043E000027C800000000040403F0000000000060A
:1043F00001010202040400000000000000000000AF
:10440000304500080000002098230000C401000887
:10441000AC52000898230020980B000028020008E6
:104420001001000043000000F8FFFFFF0040404083
:104430004040404040404141414141404040404077
:104440004040404040404040404040404005020223
:1044500002020202020202020202020202202020E2
:10446000202020202020200202020202020290903E
:10447000909090901010101010101010101010103C
:104480001010101010101010020202020202888890
:10449000888888880808080808080808080808089C
:1044A0000808080808080808020202024000000084
:1044B00000000000000000000000000000000000FC
:1044C00000000000000000000000000000000000EC
:1044D00000000000000000000000000000000000DC
:1044E00000000000000000000000000000000000CC
:1044F00000000000000000000000000000000000BC
:1045000000000000000000000000000000000000AB
:10451000000000000000000000000000000000009B
:10452000000000000000000000000000000000008B
:1045300012000120050102030404001412060708FA
:1045400009109453321E325210007E4242427E00C5
:104550000143FF49010212FF1D00101108CC4A4916
:10456000484ACC18007F88888482E03E00091412F3
:104570001252927F00007E20F010100C2424A464BC
:104580003D2664A4242424140C6010060101013D7E
:10459000250110053D41817F0CF180100704048442
:1045A000E41C073C1146F00424040420200C020102
:1045B00000FF00020242827F0201F19FF010905240
:1045C0003410FF10345280708F0808F80820001053
:1045D00010829A566322528E008040330C33408002
:1045E000C0113E000B109000FE929292F292929EA9
:1045F000201179040C100180601F00FC44474444E2
:10460000FC1F1006402010EC27BE040513E4040430
:10461000FC7E140400003F9A0008104243444847BF
:1046200040701D221081040B1050445465C6446430
:1046300054444020124481040A1082824A562322A4
:10464000524E820012009412FF86000810D81710F4
:1046500010F010106110050F0402FFFE0406112176
:104660001608162100300A4030EF246448487F487D
:1046700004011080580601017F21114309124114E1
:10468000084042CC0000809E4005133F1582000E7A
:10469000107F2094844424140F1424448484C01074
:1046A0000A8060F807404848E85F82021140802194
:1046B000DF08091300020B1222D20A06DF080D10D0
:1046C000FC04D4545454D4047F84C53640001010E4
:1046D0008866010063828292AB8482C10224CF7F0C
:1046E00031BC0807129EE0809EB2D200080E11086D
:1046F00008F4949292F10001F2929494605D630345
:104700003240010512203101427F070111E01809F2
:10471000106002CC8040201EDE02123E20000F10EE
:1047200004047E018080834D512151498780A02E51
:104730000441032A3C8229830510002E0441031200
:10474000090108041449897F9F2D7C030C0811245A
:10475000FC222222232220043D76036D7E030D11CC
:10476000800339C0080B1490003F48484444444239
:1047700070C00A180041500580808292010311FE2A
:1047800080E0040E13404022241048807F04081863
:104790002422622D1105040415E21CE09A155C1414
:1047A00004100C0309000511030C304060013EC0E9
:1047B0001C062030AC63107A041F090E7E04091118
:1047C0001F7C0622672212927F030D1121030C0E1B
:1047D00012FE024222325E925232120202FEBE05E6
:1047E0001DD8051C065155646941E0050D12810371
:1047F0001D40030C0C1417087C4BCA6A5A4E4878AB
:10480000004003080A114A4A2552897E041A21A24F
:104810003C0440301E840421010D115E030010127F
:1048200081814121110D0301030D1121418181C0BD
:104830000C0418FA02FE80040C07188047300F1091
:104840006780041900210132FE060512205D8606EC
:104850000116191C040808C8BB04040911C808087B
:10486000FF080809CA811F206798061797908204DD
:104870000510182641F8C0410152FF080111A02976
:10488000410807131360030C1020400C0F14600242
:104890008C00484620108F1020488600C0031288E4
:1048A000200005160F102846405EFE01030214008A
:1048B000401C0444485041040C04117F5048200619
:1048C000080F104458C0FF504C0088FF8800FE229B
:1048D00022411C0D080601FF0106001F109F601FEA
:1048E000CC060511000407182424FE232220621C94
:1048F000057F21212100082E3FC8040910612B40AB
:104900003C3C3E403F060E11C840061C0502060214
:10491000FFF7073C04020A12C3070D1101071C0729
:1049200088C4330004C43F070F16040400083D4147
:10493000050C05127F41414162052EC060054A48C1
:10494000050D12000420063704041464030F130736
:104950001025043C0480601864060C0512089020A1
:10496000C0010319022C054020130849050E15004B
:1049700021050C07128242F20E42821F05430010ED
:10498000392DFA040F1001021F092D00041DF80330
:1049900051040111401407007F40504C437B1E47D7
:1049A000A2070A104F001004F212FE021004F200D7
:1049B00084010D1281081EFFDF092D790525BF0E28
:1049C000114181085DC005080612FE9180FF8081BB
:1049D0004DC0050C09118082462A132A4682C00365
:1049E0003E60BB091E3FC0090405112424A0605F7E
:1049F0000C0C114829094D8D7B0B09284C981E0879
:104A00000C0C134262524AC6425262C200F8E603DC
:104A10001C0640C444447FA3060C061120000F402E
:104A200080C206159C1E2019031D5F090C0414503A
:104A30002020200643FE42010D125F032D010A3F94
:104A400011F6FD040F12F4133F0915DC3F320F0578
:104A5000070E13FF800A4D3C0408091180F88040BE
:104A6000FF2010F0DF180430100F98157F00061596
:104A70005F424443784031FD0D13410831403E48C8
:104A800000030D1562082D38030C081114155694F7
:104A900054341400082C0440300F840B4D7E0B0F4F
:104AA0001105038005400480BEA2010F14BE808062
:104AB000051F060565080C05124484443CDE092DDB
:104AC000FA030C0B12FF484842A29E82A2C2BEDF2C
:104AD000090809141F207F4444404F48C02C04009B
:104AE000007C21093D41090D13410B9E7C41090DBC
:104AF00011800B11993C0814640F04E4242F010960
:104B00000D11E10C24050978040380157F0D11C0F7
:104B1000041D8007100612525252FE040E14128019
:104B2000071E4078040C0812417F4149514F40C094
:104B3000081DBA0642FE0515C50110213808403F80
:104B40000020BF403FBC0A124FC10C0D11FE225A7B
:104B50008620102824E32428108006240800FF045F
:104B60000827110DC0080412050931BF000C11D02F
:104B7000FF9014E4AFA4A4A4AFE4FF11FC000D1453
:104B8000FF00894B2A1A0E1A2A4B888040000A150A
:104B90001000FC24E4242223E2401C0783601F80D1
:104BA000412640070D1500071E44810B127F040E9D
:104BB0001444C00A19DC0C06121515155595810A06
:104BC0001F100C1C0C1C04040506A5050F11244421
:104BD000400E1DFC0545802DFE050D13DF033EFC38
:104BE000810E3EA6C70A0D1300031C0610131212F5
:104BF00012C70E0F111212A0082DC0090C0B143091
:104C000002262AE22629212925C0090C0A1252214E
:104C100099874D5525554D00095C06020CC000F0E2
:104C200042090D1100041F02023C071E0FA60B1EB5
:104C3000FFA7030E150F00060C0815122242824230
:104C4000221A00060C0A1340484442414041424C9B
:104C500021041D760A20060808887F88070E13F8AD
:104C60003A094D82060C041201024C40051DC10D8B
:104C70001C074242C27E42C2250501125F6D400BF5
:104C80003DFF070D11C00E0C0916884828090A2897
:104C90004888800F1C084020110A040B30E30C0EDA
:104CA0001313800F3E40410E1E203E060C06143F9B
:104CB000A424A460410E0C0B1110888A4C29180FF3
:104CC0001828C8E0086004827A22010D11220E1D06
:104CD000160A41010C05124981413F3F0B23808890
:104CE0000132FF060D11800C3F2020C2070C061276
:104CF000FF01020408A00319C011012345C60609DB
:104D000012C02DDC0D1D9806327F200D13220E1CC3
:104D1000050C30C000A2090C041380700E9E082DF3
:104D20007E081543130A11460D12C00C0D7D80112B
:104D30000D3E400F0D3E80063D40041C0484452678
:104D400007060D1340043406040402FE457D0C04DE
:104D50001245FE02200739803D3F090E1584C1111E
:104D6000198049FF0D1240091C04040474FD04233A
:104D700054FF050E1274800F4E04FB041D01050F35
:104D800012151FA0062D7B080C0614D030FF30D062
:104D9000810D297E4E09DE0C29820D1261041C064C
:104DA000F2121A16D2E3040E13F2400A1808808099
:104DB0004F40201807BD0E124F9F111D3E102C07AB
:104DC0005C44C40002F2850D0D1160101C07020145
:104DD0007F10103F47030C071408084888403F0025
:104DE000061C0524242FE403131D83070D1400065D
:104DF0000C0B15FF11090719090749917F00041EC3
:104E0000FC3E0A0C05122222A36241110C0E142052
:104E10001F2058475048454245485040410B42F2F8
:104E2000FE0D14E1092C047F2020A113040517278F
:104E300020207F00040A152010E82724E4342CE009
:104E4000001DC6080C041209093F431159400D19F1
:104E5000A20E1405003F9048810C05110007182090
:104E6000801450050000E282010D14A00A497B4D18
:104E700047120E157840142E903B0D0D14400D5D19
:104E8000C0100E13003D0B2DC0087D7D0F2D830F2C
:104E90000D11A0102E80420A0D18830F1E04D61388
:104EA0001F649C66071D830F0B122818C0040A1389
:104EB0000601824C20180601060059002F0402C882
:104EC0000A0A15FC002C07404F4442407FC10905E7
:104ED00012801D030F1D200E0C0511C050484660A6
:104EE000132DC00F157D0D17C00E4D7A0B1E205DC2
:104EF000062A68E40D10E1113E1F1D0E1D050F3E30
:104F00003F070F0D14E0130F18FF44E005553C0D4B
:104F100014BE032DC1072D7A062DC0100C041109F3
:104F20000AC820051D7C160C051610201F80C01015
:104F30002DF6071D9C030D1780081D400C0C0A114F
:104F40001F088848300E014080BF030D7F00033DDD
:104F500040160D19400A4D7F050D19400A10041026
:104F6000F01FF80C081040E05847405060C10F1C7B
:104F700004402215F9165D050E0D11E00E3DC0042A
:104F80001541071409FAFF2D80113D830A4D820A4D
:104F90000D12400D3D020C51060D1281101C053FF3
:104FA00000407F070D0D1482032C09108C4404E48B
:104FB0000495A6C6060F104494C0062C0802027A77
:104FC00041414342DE190E1243DF090C0F1088687D
:104FD0001FC80810C85452D1129408D0E00A1C0609
:104FE000091909FF05C5190C051292FF005F400F52
:104FF0001DDF080C0C12FC2310886704F4042454F1
:105000008C1F140C0D110077808188B2848380E09E
:105010000011E00F1E0238192D3F1911040E12F273
:10502000C00A2C0402829283190C0512324A4642AD
:10503000BF180C0E134020F807F0A0904C5724A482
:10504000544C800E0C0B12FF001F809252492924F1
:10505000127E173E04F9100C06144030CC0B088168
:10506000151D3E0A0F1810080019200400F80C3A0C
:105070000C041540308F400B2DFF123DF9030E1329
:105080004340030D7E000D2D00060C0B1090209860
:105090008888E98E8888A862111C04024281BD1BA1
:1050A0000C081280844B2810284701082C040202A7
:1050B000C282123D80150512A04D7C0F0E167FC0D6
:1050C000180C0D13201808EAACA8A8AFA8A8ACEAE1
:1050D00001065F003E3D1100041312221E7F3EF2C6
:1050E000FC172D00150D12C1084D390D2F04078234
:1050F000100E117FC009C28001022F00010C06189A
:10510000020C806080C0061F020280190E1840C089
:10511000061E0017094C0608C838009044170D12E7
:1051200061031C040C030462140E1543810737004D
:10513000FE582EFFA9180E1508C0085E10810A0D32
:105140001180151F02E2BA1952FE040F13E2020089
:105150000E1004060116040D14000EAE8000180196
:1051600011BF1D38112D3C133E7F44130D13210E2A
:105170001DC01B13003E7C0C051422223E0080182B
:105180000C0C4F2011090503FF0305091120800CA9
:105190002F02FA78051F402025150C04104C5020D2
:1051A000601B1C0D08184884443F404458414E6021
:1051B00023060D15800E0D1880162D81090F18106D
:1051C0004880164DC00A1DDF1A0C0616C949497FD2
:1051D00080C0081E5FBB170C0550414245580013A4
:1051E0001F00F8DE174DA61B0D15401A8D4B150D2F
:1051F0001200065D0012293E0913403D00124F03C4
:1052000000C00E0511404DBF190C071782E2A29293
:105210008A86C0190D167D0A0D42000B0D3E800CCA
:105220000D3D80080D3E80070D3FC01C0D3D400820
:105230000D3E000E3D641811015D4E080515E41089
:105240000CC0E0F0F8FCFC7E3E3E3F1F018C0A3FA4
:105250003E7E7EFCF8F8F0C00F1C22E044CEFF9F9B
:1052600016230107153D7421113F32F822D3FFFCAC
:10527000014115114DB2FF0123070301B307CF16FA
:10528000C23F24C006FEC08080FC131DAC13C009C1
:1052900003070F1F3F7F7F7F2C111BDC087F3F3FE1
:0C52A0001F0F07019D20610100000000AD
:040000050800018965
:00000001FF
